{
  "contractName": "CircuitBreaker",
  "abi": [
    {
      "constant": true,
      "inputs": [],
      "name": "owner",
      "outputs": [
        {
          "name": "",
          "type": "address"
        }
      ],
      "payable": false,
      "stateMutability": "view",
      "type": "function"
    },
    {
      "constant": true,
      "inputs": [],
      "name": "state",
      "outputs": [
        {
          "name": "",
          "type": "uint8"
        }
      ],
      "payable": false,
      "stateMutability": "view",
      "type": "function"
    },
    {
      "constant": false,
      "inputs": [
        {
          "name": "newOwner",
          "type": "address"
        }
      ],
      "name": "transferOwnership",
      "outputs": [],
      "payable": false,
      "stateMutability": "nonpayable",
      "type": "function"
    },
    {
      "inputs": [],
      "payable": false,
      "stateMutability": "nonpayable",
      "type": "constructor"
    },
    {
      "anonymous": false,
      "inputs": [
        {
          "indexed": true,
          "name": "previousOwner",
          "type": "address"
        },
        {
          "indexed": true,
          "name": "newOwner",
          "type": "address"
        }
      ],
      "name": "OwnershipTransferred",
      "type": "event"
    },
    {
      "constant": false,
      "inputs": [],
      "name": "stopContract",
      "outputs": [],
      "payable": false,
      "stateMutability": "nonpayable",
      "type": "function"
    },
    {
      "constant": false,
      "inputs": [],
      "name": "startContract",
      "outputs": [],
      "payable": false,
      "stateMutability": "nonpayable",
      "type": "function"
    }
  ],
  "bytecode": "0x608060405234801561001057600080fd5b50336000806101000a81548173ffffffffffffffffffffffffffffffffffffffff021916908373ffffffffffffffffffffffffffffffffffffffff16021790555060008060146101000a81548160ff0219169083600181111561006f57fe5b021790555061042d806100836000396000f30060806040526004361061006d576000357c0100000000000000000000000000000000000000000000000000000000900463ffffffff16806312253a6c146100725780635fb02f4d146100895780638da5cb5b146100a0578063c19d93fb146100f7578063f2fde38b14610130575b600080fd5b34801561007e57600080fd5b50610087610173565b005b34801561009557600080fd5b5061009e6101f4565b005b3480156100ac57600080fd5b506100b5610274565b604051808273ffffffffffffffffffffffffffffffffffffffff1673ffffffffffffffffffffffffffffffffffffffff16815260200191505060405180910390f35b34801561010357600080fd5b5061010c610299565b6040518082600181111561011c57fe5b60ff16815260200191505060405180910390f35b34801561013c57600080fd5b50610171600480360381019080803573ffffffffffffffffffffffffffffffffffffffff1690602001909291905050506102ac565b005b6000809054906101000a900473ffffffffffffffffffffffffffffffffffffffff1673ffffffffffffffffffffffffffffffffffffffff163373ffffffffffffffffffffffffffffffffffffffff161415156101ce57600080fd5b6001600060146101000a81548160ff021916908360018111156101ed57fe5b0217905550565b6000809054906101000a900473ffffffffffffffffffffffffffffffffffffffff1673ffffffffffffffffffffffffffffffffffffffff163373ffffffffffffffffffffffffffffffffffffffff1614151561024f57600080fd5b60008060146101000a81548160ff0219169083600181111561026d57fe5b0217905550565b6000809054906101000a900473ffffffffffffffffffffffffffffffffffffffff1681565b600060149054906101000a900460ff1681565b6000809054906101000a900473ffffffffffffffffffffffffffffffffffffffff1673ffffffffffffffffffffffffffffffffffffffff163373ffffffffffffffffffffffffffffffffffffffff1614151561030757600080fd5b600073ffffffffffffffffffffffffffffffffffffffff168173ffffffffffffffffffffffffffffffffffffffff161415151561034357600080fd5b8073ffffffffffffffffffffffffffffffffffffffff166000809054906101000a900473ffffffffffffffffffffffffffffffffffffffff1673ffffffffffffffffffffffffffffffffffffffff167f8be0079c531659141344cd1fd0a4f28419497f9722a3daafe3b4186f6b6457e060405160405180910390a3806000806101000a81548173ffffffffffffffffffffffffffffffffffffffff021916908373ffffffffffffffffffffffffffffffffffffffff160217905550505600a165627a7a72305820ddcee190e0f194465a3bfef609a60d91a16817685da9f821b40a9a72bcfafa420029",
  "source": "pragma solidity ^0.4.24;\n\nimport \"zeppelin/ownership/Ownable.sol\";\n\n/** @title CircuitBreaker */\ncontract CircuitBreaker is Ownable {\n  enum BreakerStates { Started, Stopped }\n  BreakerStates public state;\n\n  constructor ()\n    public\n  {\n    state = BreakerStates.Started;\n  }\n\n  /**\n  * @dev Only allow function to be executed with Contract is in state \"Started\"\n  */\n  modifier contractStarted() {\n    require(state == BreakerStates.Started);\n    _;\n  }\n\n  /**\n  * @dev Enables circuit breaker stopping all functionality\n  */\n  function stopContract()\n    external\n    onlyOwner\n  {\n    state = BreakerStates.Stopped;\n  }\n\n  /**\n  * @dev Disables circuit breaker enabling all functionality\n  */\n  function startContract()\n    external\n    onlyOwner\n  {\n    state = BreakerStates.Started;\n  }\n}\n",
  "sourcePath": "/Users/gururajaun/vlinder_codes/consensys_course/final_project_v3/contracts/CircuitBreaker.sol",
  "compiler": {
    "name": "solc",
    "version": "0.4.24+commit.e67f0147.Emscripten.clang"
  },
  "schemaVersion": "3.0.1",
  "updatedAt": "2019-01-27T05:01:52.002Z",
  "devdoc": {
    "methods": {
      "startContract()": {
        "details": "Disables circuit breaker enabling all functionality"
      },
      "stopContract()": {
        "details": "Enables circuit breaker stopping all functionality"
      },
      "transferOwnership(address)": {
        "details": "Allows the current owner to transfer control of the contract to a newOwner.",
        "params": {
          "newOwner": "The address to transfer ownership to."
        }
      }
    },
    "title": "CircuitBreaker "
  },
  "userdoc": {
    "methods": {}
  }
}