{
  "contractName": "EmploymentVerification",
  "abi": [
    {
      "constant": false,
      "inputs": [],
      "name": "stopContract",
      "outputs": [],
      "payable": false,
      "stateMutability": "nonpayable",
      "type": "function",
      "signature": "0x12253a6c"
    },
    {
      "constant": false,
      "inputs": [],
      "name": "startContract",
      "outputs": [],
      "payable": false,
      "stateMutability": "nonpayable",
      "type": "function",
      "signature": "0x5fb02f4d"
    },
    {
      "constant": true,
      "inputs": [
        {
          "name": "",
          "type": "uint256"
        }
      ],
      "name": "applicants",
      "outputs": [
        {
          "name": "name",
          "type": "string"
        },
        {
          "name": "degreehash",
          "type": "string"
        },
        {
          "name": "experiencehash",
          "type": "string"
        },
        {
          "name": "applicant_address",
          "type": "address"
        },
        {
          "name": "universityVerificationStatus",
          "type": "uint256"
        },
        {
          "name": "employerVerificationStatus",
          "type": "uint256"
        }
      ],
      "payable": false,
      "stateMutability": "view",
      "type": "function",
      "signature": "0x63de5323"
    },
    {
      "constant": true,
      "inputs": [],
      "name": "owner",
      "outputs": [
        {
          "name": "",
          "type": "address"
        }
      ],
      "payable": false,
      "stateMutability": "view",
      "type": "function",
      "signature": "0x8da5cb5b"
    },
    {
      "constant": true,
      "inputs": [
        {
          "name": "",
          "type": "address"
        }
      ],
      "name": "registered",
      "outputs": [
        {
          "name": "enrolled",
          "type": "bool"
        },
        {
          "name": "index",
          "type": "uint256"
        }
      ],
      "payable": false,
      "stateMutability": "view",
      "type": "function",
      "signature": "0xb2dd5c07"
    },
    {
      "constant": true,
      "inputs": [],
      "name": "state",
      "outputs": [
        {
          "name": "",
          "type": "uint8"
        }
      ],
      "payable": false,
      "stateMutability": "view",
      "type": "function",
      "signature": "0xc19d93fb"
    },
    {
      "constant": false,
      "inputs": [
        {
          "name": "newOwner",
          "type": "address"
        }
      ],
      "name": "transferOwnership",
      "outputs": [],
      "payable": false,
      "stateMutability": "nonpayable",
      "type": "function",
      "signature": "0xf2fde38b"
    },
    {
      "inputs": [
        {
          "name": "_universityAddress",
          "type": "address"
        },
        {
          "name": "_employerAddress",
          "type": "address"
        }
      ],
      "payable": false,
      "stateMutability": "nonpayable",
      "type": "constructor",
      "signature": "constructor"
    },
    {
      "payable": true,
      "stateMutability": "payable",
      "type": "fallback"
    },
    {
      "anonymous": false,
      "inputs": [
        {
          "indexed": false,
          "name": "index",
          "type": "uint256"
        }
      ],
      "name": "NewApplicantAdded",
      "type": "event",
      "signature": "0x125c2b7c03d9ff19d47c915c624ab2729ddb8505f056a443566e512654eeacc4"
    },
    {
      "anonymous": false,
      "inputs": [
        {
          "indexed": false,
          "name": "index",
          "type": "uint256"
        }
      ],
      "name": "UniversityVerfied",
      "type": "event",
      "signature": "0x7b4ae2278eb7fbdecb8a68ec9e481547cc096c9d0d8954fa52045a4f1f5d462c"
    },
    {
      "anonymous": false,
      "inputs": [
        {
          "indexed": false,
          "name": "index",
          "type": "uint256"
        }
      ],
      "name": "EmployerVerified",
      "type": "event",
      "signature": "0x2a2d2cb3d9f4a0f453354ea8e1e6a5c2a0dd8ac78d3899adb4a0cb2ecd42c638"
    },
    {
      "anonymous": false,
      "inputs": [
        {
          "indexed": false,
          "name": "sender",
          "type": "address"
        }
      ],
      "name": "NotifyMalliciousAttempt",
      "type": "event",
      "signature": "0x6c161872bc304015529094beab481e130ed9b409eb4230c89b792ef40e9bc4cd"
    },
    {
      "anonymous": false,
      "inputs": [
        {
          "indexed": true,
          "name": "previousOwner",
          "type": "address"
        },
        {
          "indexed": true,
          "name": "newOwner",
          "type": "address"
        }
      ],
      "name": "OwnershipTransferred",
      "type": "event",
      "signature": "0x8be0079c531659141344cd1fd0a4f28419497f9722a3daafe3b4186f6b6457e0"
    },
    {
      "constant": false,
      "inputs": [
        {
          "name": "_name",
          "type": "string"
        },
        {
          "name": "_degreehash",
          "type": "string"
        },
        {
          "name": "_experiencehash",
          "type": "string"
        }
      ],
      "name": "newApplicant",
      "outputs": [
        {
          "name": "",
          "type": "bool"
        }
      ],
      "payable": false,
      "stateMutability": "nonpayable",
      "type": "function",
      "signature": "0xa405a104"
    },
    {
      "constant": true,
      "inputs": [],
      "name": "getApplicantTotal",
      "outputs": [
        {
          "name": "",
          "type": "uint256"
        }
      ],
      "payable": false,
      "stateMutability": "view",
      "type": "function",
      "signature": "0x95df2655"
    },
    {
      "constant": true,
      "inputs": [],
      "name": "getMyIndex",
      "outputs": [
        {
          "name": "",
          "type": "uint256"
        }
      ],
      "payable": false,
      "stateMutability": "view",
      "type": "function",
      "signature": "0x8d2a5162"
    },
    {
      "constant": true,
      "inputs": [
        {
          "name": "_applicant",
          "type": "address"
        }
      ],
      "name": "getApplicantIndex",
      "outputs": [
        {
          "name": "",
          "type": "uint256"
        }
      ],
      "payable": false,
      "stateMutability": "view",
      "type": "function",
      "signature": "0x2559066f"
    },
    {
      "constant": true,
      "inputs": [
        {
          "name": "_index",
          "type": "uint256"
        }
      ],
      "name": "getApplicantInfo",
      "outputs": [
        {
          "name": "name",
          "type": "string"
        },
        {
          "name": "degreehash",
          "type": "string"
        },
        {
          "name": "experiencehash",
          "type": "string"
        },
        {
          "name": "universityVerificationStatus",
          "type": "uint256"
        },
        {
          "name": "employerVerificationStatus",
          "type": "uint256"
        },
        {
          "name": "applicant_address",
          "type": "address"
        }
      ],
      "payable": false,
      "stateMutability": "view",
      "type": "function",
      "signature": "0xf3453051"
    },
    {
      "constant": false,
      "inputs": [
        {
          "name": "_index",
          "type": "uint256"
        },
        {
          "name": "_approvalStatus",
          "type": "uint256"
        }
      ],
      "name": "universityVerification",
      "outputs": [],
      "payable": false,
      "stateMutability": "nonpayable",
      "type": "function",
      "signature": "0xfb3aaaef"
    },
    {
      "constant": false,
      "inputs": [
        {
          "name": "_index",
          "type": "uint256"
        },
        {
          "name": "_approvalStatus",
          "type": "uint256"
        }
      ],
      "name": "employerVerification",
      "outputs": [],
      "payable": false,
      "stateMutability": "nonpayable",
      "type": "function",
      "signature": "0x67835f32"
    },
    {
      "constant": false,
      "inputs": [],
      "name": "mortal",
      "outputs": [],
      "payable": false,
      "stateMutability": "nonpayable",
      "type": "function",
      "signature": "0xf1eae25c"
    }
  ],
  "bytecode": "0x608060405234801561001057600080fd5b50604051604080611daf8339810180604052810190808051906020019092919080519060200190929190505050336000806101000a81548173ffffffffffffffffffffffffffffffffffffffff021916908373ffffffffffffffffffffffffffffffffffffffff16021790555060008060146101000a81548160ff0219169083600181111561009b57fe5b021790555033600160006101000a81548173ffffffffffffffffffffffffffffffffffffffff021916908373ffffffffffffffffffffffffffffffffffffffff160217905550600060028190555081600360006101000a81548173ffffffffffffffffffffffffffffffffffffffff021916908373ffffffffffffffffffffffffffffffffffffffff16021790555080600460006101000a81548173ffffffffffffffffffffffffffffffffffffffff021916908373ffffffffffffffffffffffffffffffffffffffff1602179055505050611c338061017c6000396000f3006080604052600436106100db576000357c0100000000000000000000000000000000000000000000000000000000900463ffffffff16806312253a6c146101405780632559066f146101575780635fb02f4d146101ae57806363de5323146101c557806367835f32146103845780638d2a5162146103bb5780638da5cb5b146103e657806395df26551461043d578063a405a10414610468578063b2dd5c07146104eb578063c19d93fb1461054d578063f1eae25c14610586578063f2fde38b1461059d578063f3453051146105e0578063fb3aaaef1461079f575b7f6c161872bc304015529094beab481e130ed9b409eb4230c89b792ef40e9bc4cd33604051808273ffffffffffffffffffffffffffffffffffffffff1673ffffffffffffffffffffffffffffffffffffffff16815260200191505060405180910390a1005b34801561014c57600080fd5b506101556107d6565b005b34801561016357600080fd5b50610198600480360381019080803573ffffffffffffffffffffffffffffffffffffffff169060200190929190505050610857565b6040518082815260200191505060405180910390f35b3480156101ba57600080fd5b506101c3610a92565b005b3480156101d157600080fd5b506101f060048036038101908080359060200190929190505050610b12565b604051808060200180602001806020018773ffffffffffffffffffffffffffffffffffffffff1673ffffffffffffffffffffffffffffffffffffffff16815260200186815260200185815260200184810384528a818151815260200191508051906020019080838360005b8381101561027657808201518184015260208101905061025b565b50505050905090810190601f1680156102a35780820380516001836020036101000a031916815260200191505b50848103835289818151815260200191508051906020019080838360005b838110156102dc5780820151818401526020810190506102c1565b50505050905090810190601f1680156103095780820380516001836020036101000a031916815260200191505b50848103825288818151815260200191508051906020019080838360005b83811015610342578082015181840152602081019050610327565b50505050905090810190601f16801561036f5780820380516001836020036101000a031916815260200191505b50995050505050505050505060405180910390f35b34801561039057600080fd5b506103b96004803603810190808035906020019092919080359060200190929190505050610d36565b005b3480156103c757600080fd5b506103d0610e4e565b6040518082815260200191505060405180910390f35b3480156103f257600080fd5b506103fb610ecb565b604051808273ffffffffffffffffffffffffffffffffffffffff1673ffffffffffffffffffffffffffffffffffffffff16815260200191505060405180910390f35b34801561044957600080fd5b50610452610ef0565b6040518082815260200191505060405180910390f35b34801561047457600080fd5b506104d16004803603810190808035906020019082018035906020019190919293919293908035906020019082018035906020019190919293919293908035906020019082018035906020019190919293919293905050506110e9565b604051808215151515815260200191505060405180910390f35b3480156104f757600080fd5b5061052c600480360381019080803573ffffffffffffffffffffffffffffffffffffffff16906020019092919050505061139a565b60405180831515151581526020018281526020019250505060405180910390f35b34801561055957600080fd5b506105626113cb565b6040518082600181111561057257fe5b60ff16815260200191505060405180910390f35b34801561059257600080fd5b5061059b6113de565b005b3480156105a957600080fd5b506105de600480360381019080803573ffffffffffffffffffffffffffffffffffffffff169060200190929190505050611475565b005b3480156105ec57600080fd5b5061060b600480360381019080803590602001909291905050506115ca565b604051808060200180602001806020018781526020018681526020018573ffffffffffffffffffffffffffffffffffffffff1673ffffffffffffffffffffffffffffffffffffffff16815260200184810384528a818151815260200191508051906020019080838360005b83811015610691578082015181840152602081019050610676565b50505050905090810190601f1680156106be5780820380516001836020036101000a031916815260200191505b50848103835289818151815260200191508051906020019080838360005b838110156106f75780820151818401526020810190506106dc565b50505050905090810190601f1680156107245780820380516001836020036101000a031916815260200191505b50848103825288818151815260200191508051906020019080838360005b8381101561075d578082015181840152602081019050610742565b50505050905090810190601f16801561078a5780820380516001836020036101000a031916815260200191505b50995050505050505050505060405180910390f35b3480156107ab57600080fd5b506107d46004803603810190808035906020019092919080359060200190929190505050611a4a565b005b6000809054906101000a900473ffffffffffffffffffffffffffffffffffffffff1673ffffffffffffffffffffffffffffffffffffffff163373ffffffffffffffffffffffffffffffffffffffff1614151561083157600080fd5b6001600060146101000a81548160ff0219169083600181111561085057fe5b0217905550565b600080600181111561086557fe5b600060149054906101000a900460ff16600181111561088057fe5b14151561088c57600080fd5b33600160009054906101000a900473ffffffffffffffffffffffffffffffffffffffff1673ffffffffffffffffffffffffffffffffffffffff163373ffffffffffffffffffffffffffffffffffffffff1614806109365750600360009054906101000a900473ffffffffffffffffffffffffffffffffffffffff1673ffffffffffffffffffffffffffffffffffffffff163373ffffffffffffffffffffffffffffffffffffffff16145b8061098e5750600460009054906101000a900473ffffffffffffffffffffffffffffffffffffffff1673ffffffffffffffffffffffffffffffffffffffff163373ffffffffffffffffffffffffffffffffffffffff16145b80610a3c57508073ffffffffffffffffffffffffffffffffffffffff1660056000600660008573ffffffffffffffffffffffffffffffffffffffff1673ffffffffffffffffffffffffffffffffffffffff16815260200190815260200160002060010154815260200190815260200160002060030160009054906101000a900473ffffffffffffffffffffffffffffffffffffffff1673ffffffffffffffffffffffffffffffffffffffff16145b1515610a4757600080fd5b600660008473ffffffffffffffffffffffffffffffffffffffff1673ffffffffffffffffffffffffffffffffffffffff16815260200190815260200160002060010154915050919050565b6000809054906101000a900473ffffffffffffffffffffffffffffffffffffffff1673ffffffffffffffffffffffffffffffffffffffff163373ffffffffffffffffffffffffffffffffffffffff16141515610aed57600080fd5b60008060146101000a81548160ff02191690836001811115610b0b57fe5b0217905550565b6005602052806000526040600020600091509050806000018054600181600116156101000203166002900480601f016020809104026020016040519081016040528092919081815260200182805460018160011615610100020316600290048015610bbe5780601f10610b9357610100808354040283529160200191610bbe565b820191906000526020600020905b815481529060010190602001808311610ba157829003601f168201915b505050505090806001018054600181600116156101000203166002900480601f016020809104026020016040519081016040528092919081815260200182805460018160011615610100020316600290048015610c5c5780601f10610c3157610100808354040283529160200191610c5c565b820191906000526020600020905b815481529060010190602001808311610c3f57829003601f168201915b505050505090806002018054600181600116156101000203166002900480601f016020809104026020016040519081016040528092919081815260200182805460018160011615610100020316600290048015610cfa5780601f10610ccf57610100808354040283529160200191610cfa565b820191906000526020600020905b815481529060010190602001808311610cdd57829003601f168201915b5050505050908060030160009054906101000a900473ffffffffffffffffffffffffffffffffffffffff16908060040154908060050154905086565b60006001811115610d4357fe5b600060149054906101000a900460ff166001811115610d5e57fe5b141515610d6a57600080fd5b600460009054906101000a900473ffffffffffffffffffffffffffffffffffffffff1673ffffffffffffffffffffffffffffffffffffffff163373ffffffffffffffffffffffffffffffffffffffff16141515610dc657600080fd5b8160006002811115610dd457fe5b6005600083815260200190815260200160002060050154141515610df757600080fd5b8160056000858152602001908152602001600020600501819055507f2a2d2cb3d9f4a0f453354ea8e1e6a5c2a0dd8ac78d3899adb4a0cb2ecd42c638836040518082815260200191505060405180910390a1505050565b6000806001811115610e5c57fe5b600060149054906101000a900460ff166001811115610e7757fe5b141515610e8357600080fd5b600660003373ffffffffffffffffffffffffffffffffffffffff1673ffffffffffffffffffffffffffffffffffffffff16815260200190815260200160002060010154905090565b6000809054906101000a900473ffffffffffffffffffffffffffffffffffffffff1681565b6000806001811115610efe57fe5b600060149054906101000a900460ff166001811115610f1957fe5b141515610f2557600080fd5b33600160009054906101000a900473ffffffffffffffffffffffffffffffffffffffff1673ffffffffffffffffffffffffffffffffffffffff163373ffffffffffffffffffffffffffffffffffffffff161480610fcf5750600360009054906101000a900473ffffffffffffffffffffffffffffffffffffffff1673ffffffffffffffffffffffffffffffffffffffff163373ffffffffffffffffffffffffffffffffffffffff16145b806110275750600460009054906101000a900473ffffffffffffffffffffffffffffffffffffffff1673ffffffffffffffffffffffffffffffffffffffff163373ffffffffffffffffffffffffffffffffffffffff16145b806110d557508073ffffffffffffffffffffffffffffffffffffffff1660056000600660008573ffffffffffffffffffffffffffffffffffffffff1673ffffffffffffffffffffffffffffffffffffffff16815260200190815260200160002060010154815260200190815260200160002060030160009054906101000a900473ffffffffffffffffffffffffffffffffffffffff1673ffffffffffffffffffffffffffffffffffffffff16145b15156110e057600080fd5b60025491505090565b60008060018111156110f757fe5b600060149054906101000a900460ff16600181111561111257fe5b14151561111e57600080fd5b3360001515600660008373ffffffffffffffffffffffffffffffffffffffff1673ffffffffffffffffffffffffffffffffffffffff16815260200190815260200160002060000160009054906101000a900460ff16151514151561118157600080fd5b600160025401600281905550878760056000600254815260200190815260200160002060000191906111b4929190611b62565b50858560056000600254815260200190815260200160002060010191906111dc929190611b62565b5083836005600060025481526020019081526020016000206002019190611204929190611b62565b506000600281111561121257fe5b600560006002548152602001908152602001600020600401819055506000600281111561123b57fe5b600560006002548152602001908152602001600020600501819055503360056000600254815260200190815260200160002060030160006101000a81548173ffffffffffffffffffffffffffffffffffffffff021916908373ffffffffffffffffffffffffffffffffffffffff1602179055506001600660003373ffffffffffffffffffffffffffffffffffffffff1673ffffffffffffffffffffffffffffffffffffffff16815260200190815260200160002060000160006101000a81548160ff021916908315150217905550600254600660003373ffffffffffffffffffffffffffffffffffffffff1673ffffffffffffffffffffffffffffffffffffffff168152602001908152602001600020600101819055507f125c2b7c03d9ff19d47c915c624ab2729ddb8505f056a443566e512654eeacc46002546040518082815260200191505060405180910390a160019150509695505050505050565b60066020528060005260406000206000915090508060000160009054906101000a900460ff16908060010154905082565b600060149054906101000a900460ff1681565b600160009054906101000a900473ffffffffffffffffffffffffffffffffffffffff1673ffffffffffffffffffffffffffffffffffffffff163373ffffffffffffffffffffffffffffffffffffffff1614151561143a57600080fd5b600160009054906101000a900473ffffffffffffffffffffffffffffffffffffffff1673ffffffffffffffffffffffffffffffffffffffff16ff5b6000809054906101000a900473ffffffffffffffffffffffffffffffffffffffff1673ffffffffffffffffffffffffffffffffffffffff163373ffffffffffffffffffffffffffffffffffffffff161415156114d057600080fd5b600073ffffffffffffffffffffffffffffffffffffffff168173ffffffffffffffffffffffffffffffffffffffff161415151561150c57600080fd5b8073ffffffffffffffffffffffffffffffffffffffff166000809054906101000a900473ffffffffffffffffffffffffffffffffffffffff1673ffffffffffffffffffffffffffffffffffffffff167f8be0079c531659141344cd1fd0a4f28419497f9722a3daafe3b4186f6b6457e060405160405180910390a3806000806101000a81548173ffffffffffffffffffffffffffffffffffffffff021916908373ffffffffffffffffffffffffffffffffffffffff16021790555050565b606080606060008060008060018111156115e057fe5b600060149054906101000a900460ff1660018111156115fb57fe5b14151561160757600080fd5b33600160009054906101000a900473ffffffffffffffffffffffffffffffffffffffff1673ffffffffffffffffffffffffffffffffffffffff163373ffffffffffffffffffffffffffffffffffffffff1614806116b15750600360009054906101000a900473ffffffffffffffffffffffffffffffffffffffff1673ffffffffffffffffffffffffffffffffffffffff163373ffffffffffffffffffffffffffffffffffffffff16145b806117095750600460009054906101000a900473ffffffffffffffffffffffffffffffffffffffff1673ffffffffffffffffffffffffffffffffffffffff163373ffffffffffffffffffffffffffffffffffffffff16145b806117b757508073ffffffffffffffffffffffffffffffffffffffff1660056000600660008573ffffffffffffffffffffffffffffffffffffffff1673ffffffffffffffffffffffffffffffffffffffff16815260200190815260200160002060010154815260200190815260200160002060030160009054906101000a900473ffffffffffffffffffffffffffffffffffffffff1673ffffffffffffffffffffffffffffffffffffffff16145b15156117c257600080fd5b600560008981526020019081526020016000206000018054600181600116156101000203166002900480601f01602080910402602001604051908101604052809291908181526020018280546001816001161561010002031660029004801561186c5780601f106118415761010080835404028352916020019161186c565b820191906000526020600020905b81548152906001019060200180831161184f57829003601f168201915b50505050509650600560008981526020019081526020016000206001018054600181600116156101000203166002900480601f01602080910402602001604051908101604052809291908181526020018280546001816001161561010002031660029004801561191d5780601f106118f25761010080835404028352916020019161191d565b820191906000526020600020905b81548152906001019060200180831161190057829003601f168201915b50505050509550600560008981526020019081526020016000206002018054600181600116156101000203166002900480601f0160208091040260200160405190810160405280929190818152602001828054600181600116156101000203166002900480156119ce5780601f106119a3576101008083540402835291602001916119ce565b820191906000526020600020905b8154815290600101906020018083116119b157829003601f168201915b5050505050945060056000898152602001908152602001600020600401549350600560008981526020019081526020016000206005015492506005600089815260200190815260200160002060030160009054906101000a900473ffffffffffffffffffffffffffffffffffffffff1691505091939550919395565b60006001811115611a5757fe5b600060149054906101000a900460ff166001811115611a7257fe5b141515611a7e57600080fd5b600360009054906101000a900473ffffffffffffffffffffffffffffffffffffffff1673ffffffffffffffffffffffffffffffffffffffff163373ffffffffffffffffffffffffffffffffffffffff16141515611ada57600080fd5b8160006002811115611ae857fe5b6005600083815260200190815260200160002060040154141515611b0b57600080fd5b8160056000858152602001908152602001600020600401819055507f7b4ae2278eb7fbdecb8a68ec9e481547cc096c9d0d8954fa52045a4f1f5d462c836040518082815260200191505060405180910390a1505050565b828054600181600116156101000203166002900490600052602060002090601f016020900481019282601f10611ba357803560ff1916838001178555611bd1565b82800160010185558215611bd1579182015b82811115611bd0578235825591602001919060010190611bb5565b5b509050611bde9190611be2565b5090565b611c0491905b80821115611c00576000816000905550600101611be8565b5090565b905600a165627a7a7230582002cb4647d2c621bc1064f03b77a3eea31d4bef2184845c219806a0706fd981560029",
  "source": "pragma solidity ^0.4.24;\n\nimport './CircuitBreaker.sol';\n\n/** @title Employment Verification Contract. */\ncontract EmploymentVerification is CircuitBreaker {\n\n    //State variables\n    \n    address private owner;              // Address of the Owner who deployed the contract\n    uint private total_applicants;      // Track the total number of applicants added through the contract.\n    address private universityAddress;  // Only this address is allowed to act as university\n    address private employerAddress;    // Only this address is allowed to act as Employer\n    \n    mapping (uint => Applicant) public applicants; // Global structure of store the applicant details.\n    \n    mapping (address => Registered) public registered;\n\n    enum Status {UnVerified,Rejected,Verified}      // Possible statuses of the applicant's submission.\n    \n    struct Applicant{\n        string name;\n        string degreehash;\n        string experiencehash;\n        address applicant_address;\n        uint universityVerificationStatus;\n        uint employerVerificationStatus;        \n    }\n\n    struct Registered{\n        bool enrolled;\n        uint index;\n    }\n    \n    // List of all the events emitted by the contract\n    event NewApplicantAdded(uint index);\n    event UniversityVerfied(uint index);\n    event EmployerVerified(uint index);\n    event NotifyMalliciousAttempt(address sender);\n\n    //List of all the modifiers that are used in the contract\n    modifier onlyNonRegistered(address _sender){ require(registered[_sender].enrolled == false); _; }\n    modifier onlyUniversity(){ require(msg.sender == universityAddress ); _; }\n    modifier onlyEmployer(){ require(msg.sender == employerAddress ); _; }\n    modifier onlyContractDeployer(){ require(msg.sender == owner ); _; }\n    modifier onlyValidUser(address _sender){ require((msg.sender == owner) || (msg.sender == universityAddress) || (msg.sender == employerAddress) || (applicants[registered[_sender].index].applicant_address == _sender)); _; }\n    modifier onlyIfUnVerifiedByUni(uint _index){ require(applicants[_index].universityVerificationStatus == uint(Status.UnVerified)); _; }\n    modifier onlyIfUnVerifiedByEmp(uint _index){ require(applicants[_index].employerVerificationStatus == uint(Status.UnVerified)); _; }\n\n  /** @dev Constructor.Requires the universityAddress and employerAddress to passed.Only These addresses will be allowed to update respective status \n    * @notice Construcor. \n    * @param _universityAddress Name of the applicant.\n    * @param _employerAddress IPFS hash of the degree certificate.\n    */\n    constructor (address _universityAddress, address _employerAddress) public {\n    owner = msg.sender; /* Set the owner to the creator of this contract */\n    total_applicants = 0;\n    universityAddress = _universityAddress;\n    employerAddress = _employerAddress;\n    }\n\n  /** @dev Adds a new applicant if not already registered.\n    * @notice Adds a new applicant.\n    * @param _name Name of the applicant.\n    * @param _degreehash IPFS hash of the degree certificate.\n    * @param _experiencehash IPFS hash of the Employment certificate.\n    * @return success of the addition.\n    */\n    function newApplicant(string _name,string _degreehash, string _experiencehash)\n    external\n    contractStarted\n    onlyNonRegistered(msg.sender)\n    returns (bool)\n    {\n       \n        total_applicants = total_applicants + 1;\n        applicants[total_applicants].name = _name;\n        applicants[total_applicants].degreehash = _degreehash;\n        applicants[total_applicants].experiencehash = _experiencehash;\n        applicants[total_applicants].universityVerificationStatus = uint(Status.UnVerified);\n        applicants[total_applicants].employerVerificationStatus = uint(Status.UnVerified);\n        applicants[total_applicants].applicant_address = msg.sender;\n        registered[msg.sender].enrolled = true;\n        registered[msg.sender].index = total_applicants;\n\n        emit NewApplicantAdded(total_applicants);\n        return true;\n    }\n\n  /** @notice Returns the total number of applicants added using this contract\n    * @return total_applicants\n    */\n    function getApplicantTotal()\n    external\n    view\n    contractStarted\n    onlyValidUser(msg.sender)\n    returns(uint){\n        return total_applicants;\n    }\n\n  /** @notice To know if the user is already registered\n    * @return Returns valid index only if the user is already registered, 0 otherwise\n    */\n    function getMyIndex()\n    view\n    external\n    contractStarted\n    returns(uint){\n        return registered[msg.sender].index; // Returns 0 for non registered applicants.\n    }\n\n  /** @notice To get the index of the user based on his address. Needed to retireve the Applicant information.\n    * @return Returns valid index only if the user is already registered, 0 otherwise\n    */ \n    function getApplicantIndex(address _applicant)\n    view\n    external\n    contractStarted\n    onlyValidUser(msg.sender)\n    //onlyEmployer\n    returns(uint){\n        return registered[_applicant].index; // Returns 0 for non registered applicants.\n    }\n\n  /** @dev Retrieves the complete info about a perticular applicant.\n    * @notice Retrieves applicant info.\n    * @param _index Index to retrieve applicant information.\n    * @return enrolled True if the applicant is already registered.\n    * @return name Applicants name.\n    * @return degreehash IPFS hash of the degree certificate.\n    * @return experiencehash IPFS hash of the Employment certificate.\n    * @return status Current status of Verification\n    * @return applicant_address Address of the applicant\n    */\n    function getApplicantInfo(uint _index)\n    view \n    external\n    contractStarted\n    onlyValidUser(msg.sender)\n    returns (string name,string degreehash,string experiencehash,uint universityVerificationStatus,uint employerVerificationStatus,address applicant_address)\n    {    \n        name = applicants[_index].name;\n        degreehash = applicants[_index].degreehash;\n        experiencehash = applicants[_index].experiencehash;\n        universityVerificationStatus = applicants[_index].universityVerificationStatus;\n        employerVerificationStatus = applicants[_index].employerVerificationStatus;\n        applicant_address = applicants[_index].applicant_address;\n    }\n\n  /** @notice Function for the university to modify the University Verification.\n    * @param _index Index to retrieve applicant information.\n    * @param _approvalStatus Rejected / Verified by the University.\n    */ \n    function universityVerification(uint _index,uint _approvalStatus)\n    external\n    contractStarted\n    onlyUniversity\n    onlyIfUnVerifiedByUni(_index)\n    {\n    applicants[_index].universityVerificationStatus = _approvalStatus;\n    emit UniversityVerfied(_index);\n    }\n\n  /** @notice Function for the Employer to modify the Employer Verification for its outgoing employes.\n    * @param _index Index to retrieve applicant information.\n    * @param _approvalStatus Rejected / Verified by the Employer.\n    */     \n    function employerVerification(uint _index,uint _approvalStatus)\n    external\n    contractStarted\n    onlyEmployer\n    onlyIfUnVerifiedByEmp(_index)\n    {\n    applicants[_index].employerVerificationStatus = _approvalStatus;\n    emit EmployerVerified(_index);\n    }\n\n    //Fallback Function.\n    //Emits address of the sender. Owner can make a decission based on this info. eg: stopcontract().\n    function () payable external {\n        emit NotifyMalliciousAttempt(msg.sender);\n    }\n\n    // Self destruct. Can be invoked only by the Contract Owner.\n    function mortal()\n    external\n    onlyContractDeployer\n    {\n        selfdestruct(owner);\n    }\n}",
  "sourcePath": "/Users/gururajaun/vlinder_codes/consensys_course/final_project_v3/contracts/EmploymentVerification.sol",
  "compiler": {
    "name": "solc",
    "version": "0.4.24+commit.e67f0147.Emscripten.clang"
  },
  "schemaVersion": "3.0.1",
  "updatedAt": "2019-01-27T09:20:13.562Z",
  "devdoc": {
    "methods": {
      "employerVerification(uint256,uint256)": {
        "params": {
          "_approvalStatus": "Rejected / Verified by the Employer.",
          "_index": "Index to retrieve applicant information."
        }
      },
      "getApplicantIndex(address)": {
        "return": "Returns valid index only if the user is already registered, 0 otherwise"
      },
      "getApplicantInfo(uint256)": {
        "details": "Retrieves the complete info about a perticular applicant.",
        "params": {
          "_index": "Index to retrieve applicant information."
        },
        "return": "enrolled True if the applicant is already registered.name Applicants name.degreehash IPFS hash of the degree certificate.experiencehash IPFS hash of the Employment certificate.status Current status of Verificationapplicant_address Address of the applicant"
      },
      "getApplicantTotal()": {
        "return": "total_applicants"
      },
      "getMyIndex()": {
        "return": "Returns valid index only if the user is already registered, 0 otherwise"
      },
      "newApplicant(string,string,string)": {
        "details": "Adds a new applicant if not already registered.",
        "params": {
          "_degreehash": "IPFS hash of the degree certificate.",
          "_experiencehash": "IPFS hash of the Employment certificate.",
          "_name": "Name of the applicant."
        },
        "return": "success of the addition."
      },
      "startContract()": {
        "details": "Disables circuit breaker enabling all functionality"
      },
      "stopContract()": {
        "details": "Enables circuit breaker stopping all functionality"
      },
      "transferOwnership(address)": {
        "details": "Allows the current owner to transfer control of the contract to a newOwner.",
        "params": {
          "newOwner": "The address to transfer ownership to."
        }
      },
      "universityVerification(uint256,uint256)": {
        "params": {
          "_approvalStatus": "Rejected / Verified by the University.",
          "_index": "Index to retrieve applicant information."
        }
      }
    },
    "title": "Employment Verification Contract. "
  },
  "userdoc": {
    "methods": {
      "employerVerification(uint256,uint256)": {
        "notice": "Function for the Employer to modify the Employer Verification for its outgoing employes."
      },
      "getApplicantIndex(address)": {
        "notice": "To get the index of the user based on his address. Needed to retireve the Applicant information."
      },
      "getApplicantInfo(uint256)": {
        "notice": "Retrieves applicant info."
      },
      "getApplicantTotal()": {
        "notice": "Returns the total number of applicants added using this contract"
      },
      "getMyIndex()": {
        "notice": "To know if the user is already registered"
      },
      "newApplicant(string,string,string)": {
        "notice": "Adds a new applicant."
      },
      "universityVerification(uint256,uint256)": {
        "notice": "Function for the university to modify the University Verification."
      }
    }
  }
}